{
	"SimpleStorage.sol": {
		"SimpleStorage": {
			"abi": [
				{
					"inputs": [
						{
							"internalType": "string",
							"name": "_name",
							"type": "string"
						},
						{
							"internalType": "uint256",
							"name": "_favoriteNumber",
							"type": "uint256"
						}
					],
					"name": "addPerson",
					"outputs": [],
					"stateMutability": "nonpayable",
					"type": "function"
				},
				{
					"inputs": [
						{
							"internalType": "string",
							"name": "",
							"type": "string"
						}
					],
					"name": "nameToFavoriteNumber",
					"outputs": [
						{
							"internalType": "uint256",
							"name": "",
							"type": "uint256"
						}
					],
					"stateMutability": "view",
					"type": "function"
				},
				{
					"inputs": [
						{
							"internalType": "uint256",
							"name": "",
							"type": "uint256"
						}
					],
					"name": "people",
					"outputs": [
						{
							"internalType": "string",
							"name": "name",
							"type": "string"
						},
						{
							"internalType": "uint256",
							"name": "favoriteNumber",
							"type": "uint256"
						}
					],
					"stateMutability": "view",
					"type": "function"
				},
				{
					"inputs": [
						{
							"internalType": "string",
							"name": "_name",
							"type": "string"
						}
					],
					"name": "retrieve",
					"outputs": [
						{
							"internalType": "uint256",
							"name": "",
							"type": "uint256"
						}
					],
					"stateMutability": "view",
					"type": "function"
				}
			],
			"devdoc": {
				"kind": "dev",
				"methods": {},
				"version": 1
			},
			"evm": {
				"assembly": "    /* \"SimpleStorage.sol\":66:579  contract SimpleStorage {... */\n  mstore(0x40, 0x80)\n  callvalue\n  dup1\n  iszero\n  tag_1\n  jumpi\n  0x00\n  dup1\n  revert\ntag_1:\n  pop\n  dataSize(sub_0)\n  dup1\n  dataOffset(sub_0)\n  0x00\n  codecopy\n  0x00\n  return\nstop\n\nsub_0: assembly {\n        /* \"SimpleStorage.sol\":66:579  contract SimpleStorage {... */\n      mstore(0x40, 0x80)\n      callvalue\n      dup1\n      iszero\n      tag_1\n      jumpi\n      0x00\n      dup1\n      revert\n    tag_1:\n      pop\n      jumpi(tag_2, lt(calldatasize, 0x04))\n      shr(0xe0, calldataload(0x00))\n      dup1\n      0x64cc7327\n      eq\n      tag_3\n      jumpi\n      dup1\n      0x6f760f41\n      eq\n      tag_4\n      jumpi\n      dup1\n      0x8bab8dd5\n      eq\n      tag_5\n      jumpi\n      dup1\n      0x9e7a13ad\n      eq\n      tag_6\n      jumpi\n    tag_2:\n      0x00\n      dup1\n      revert\n        /* \"SimpleStorage.sol\":457:577  function retrieve(string memory _name) public view returns (uint256) {... */\n    tag_3:\n      tag_7\n      0x04\n      dup1\n      calldatasize\n      sub\n      dup2\n      add\n      swap1\n      tag_8\n      swap2\n      swap1\n      tag_9\n      jump\t// in\n    tag_8:\n      tag_10\n      jump\t// in\n    tag_7:\n      mload(0x40)\n      tag_11\n      swap2\n      swap1\n      tag_12\n      jump\t// in\n    tag_11:\n      mload(0x40)\n      dup1\n      swap2\n      sub\n      swap1\n      return\n        /* \"SimpleStorage.sol\":264:451  function addPerson(string memory _name, uint256 _favoriteNumber) public {... */\n    tag_4:\n      tag_13\n      0x04\n      dup1\n      calldatasize\n      sub\n      dup2\n      add\n      swap1\n      tag_14\n      swap2\n      swap1\n      tag_15\n      jump\t// in\n    tag_14:\n      tag_16\n      jump\t// in\n    tag_13:\n      stop\n        /* \"SimpleStorage.sol\":203:257  mapping(string => uint256) public nameToFavoriteNumber */\n    tag_5:\n      tag_17\n      0x04\n      dup1\n      calldatasize\n      sub\n      dup2\n      add\n      swap1\n      tag_18\n      swap2\n      swap1\n      tag_9\n      jump\t// in\n    tag_18:\n      tag_19\n      jump\t// in\n    tag_17:\n      mload(0x40)\n      tag_20\n      swap2\n      swap1\n      tag_12\n      jump\t// in\n    tag_20:\n      mload(0x40)\n      dup1\n      swap2\n      sub\n      swap1\n      return\n        /* \"SimpleStorage.sol\":175:197  Person[] public people */\n    tag_6:\n      tag_21\n      0x04\n      dup1\n      calldatasize\n      sub\n      dup2\n      add\n      swap1\n      tag_22\n      swap2\n      swap1\n      tag_23\n      jump\t// in\n    tag_22:\n      tag_24\n      jump\t// in\n    tag_21:\n      mload(0x40)\n      tag_25\n      swap3\n      swap2\n      swap1\n      tag_26\n      jump\t// in\n    tag_25:\n      mload(0x40)\n      dup1\n      swap2\n      sub\n      swap1\n      return\n        /* \"SimpleStorage.sol\":457:577  function retrieve(string memory _name) public view returns (uint256) {... */\n    tag_10:\n        /* \"SimpleStorage.sol\":517:524  uint256 */\n      0x00\n        /* \"SimpleStorage.sol\":543:563  nameToFavoriteNumber */\n      0x01\n        /* \"SimpleStorage.sol\":564:569  _name */\n      dup3\n        /* \"SimpleStorage.sol\":543:570  nameToFavoriteNumber[_name] */\n      mload(0x40)\n      tag_28\n      swap2\n      swap1\n      tag_29\n      jump\t// in\n    tag_28:\n      swap1\n      dup2\n      mstore\n      0x20\n      add\n      mload(0x40)\n      dup1\n      swap2\n      sub\n      swap1\n      keccak256\n      sload\n        /* \"SimpleStorage.sol\":536:570  return nameToFavoriteNumber[_name] */\n      swap1\n      pop\n        /* \"SimpleStorage.sol\":457:577  function retrieve(string memory _name) public view returns (uint256) {... */\n      swap2\n      swap1\n      pop\n      jump\t// out\n        /* \"SimpleStorage.sol\":264:451  function addPerson(string memory _name, uint256 _favoriteNumber) public {... */\n    tag_16:\n        /* \"SimpleStorage.sol\":376:391  _favoriteNumber */\n      dup1\n        /* \"SimpleStorage.sol\":346:366  nameToFavoriteNumber */\n      0x01\n        /* \"SimpleStorage.sol\":367:372  _name */\n      dup4\n        /* \"SimpleStorage.sol\":346:373  nameToFavoriteNumber[_name] */\n      mload(0x40)\n      tag_31\n      swap2\n      swap1\n      tag_29\n      jump\t// in\n    tag_31:\n      swap1\n      dup2\n      mstore\n      0x20\n      add\n      mload(0x40)\n      dup1\n      swap2\n      sub\n      swap1\n      keccak256\n        /* \"SimpleStorage.sol\":346:391  nameToFavoriteNumber[_name] = _favoriteNumber */\n      dup2\n      swap1\n      sstore\n      pop\n        /* \"SimpleStorage.sol\":401:407  people */\n      0x00\n        /* \"SimpleStorage.sol\":413:443  Person(_name, _favoriteNumber) */\n      mload(0x40)\n      dup1\n      0x40\n      add\n      0x40\n      mstore\n      dup1\n        /* \"SimpleStorage.sol\":420:425  _name */\n      dup5\n        /* \"SimpleStorage.sol\":413:443  Person(_name, _favoriteNumber) */\n      dup2\n      mstore\n      0x20\n      add\n        /* \"SimpleStorage.sol\":427:442  _favoriteNumber */\n      dup4\n        /* \"SimpleStorage.sol\":413:443  Person(_name, _favoriteNumber) */\n      dup2\n      mstore\n      pop\n        /* \"SimpleStorage.sol\":401:444  people.push(Person(_name, _favoriteNumber)) */\n      swap1\n      dup1\n      0x01\n      dup2\n      sload\n      add\n      dup1\n      dup3\n      sstore\n      dup1\n      swap2\n      pop\n      pop\n      0x01\n      swap1\n      sub\n      swap1\n      0x00\n      mstore\n      keccak256(0x00, 0x20)\n      swap1\n      0x02\n      mul\n      add\n      0x00\n      swap1\n      swap2\n      swap1\n      swap2\n      swap1\n      swap2\n      pop\n      0x00\n      dup3\n      add\n      mload\n      dup2\n      0x00\n      add\n      swap1\n      dup2\n      tag_33\n      swap2\n      swap1\n      tag_34\n      jump\t// in\n    tag_33:\n      pop\n      0x20\n      dup3\n      add\n      mload\n      dup2\n      0x01\n      add\n      sstore\n      pop\n      pop\n        /* \"SimpleStorage.sol\":264:451  function addPerson(string memory _name, uint256 _favoriteNumber) public {... */\n      pop\n      pop\n      jump\t// out\n        /* \"SimpleStorage.sol\":203:257  mapping(string => uint256) public nameToFavoriteNumber */\n    tag_19:\n      0x01\n      dup2\n      dup1\n      mload\n      0x20\n      dup2\n      add\n      dup3\n      add\n      dup1\n      mload\n      dup5\n      dup3\n      mstore\n      0x20\n      dup4\n      add\n      0x20\n      dup6\n      add\n      keccak256\n      dup2\n      dup4\n      mstore\n      dup1\n      swap6\n      pop\n      pop\n      pop\n      pop\n      pop\n      pop\n      0x00\n      swap2\n      pop\n      swap1\n      pop\n      sload\n      dup2\n      jump\t// out\n        /* \"SimpleStorage.sol\":175:197  Person[] public people */\n    tag_24:\n      0x00\n      dup2\n      dup2\n      sload\n      dup2\n      lt\n      tag_35\n      jumpi\n      0x00\n      dup1\n      revert\n    tag_35:\n      swap1\n      0x00\n      mstore\n      keccak256(0x00, 0x20)\n      swap1\n      0x02\n      mul\n      add\n      0x00\n      swap2\n      pop\n      swap1\n      pop\n      dup1\n      0x00\n      add\n      dup1\n      sload\n      tag_37\n      swap1\n      tag_38\n      jump\t// in\n    tag_37:\n      dup1\n      0x1f\n      add\n      0x20\n      dup1\n      swap2\n      div\n      mul\n      0x20\n      add\n      mload(0x40)\n      swap1\n      dup2\n      add\n      0x40\n      mstore\n      dup1\n      swap3\n      swap2\n      swap1\n      dup2\n      dup2\n      mstore\n      0x20\n      add\n      dup3\n      dup1\n      sload\n      tag_39\n      swap1\n      tag_38\n      jump\t// in\n    tag_39:\n      dup1\n      iszero\n      tag_40\n      jumpi\n      dup1\n      0x1f\n      lt\n      tag_41\n      jumpi\n      0x0100\n      dup1\n      dup4\n      sload\n      div\n      mul\n      dup4\n      mstore\n      swap2\n      0x20\n      add\n      swap2\n      jump(tag_40)\n    tag_41:\n      dup3\n      add\n      swap2\n      swap1\n      0x00\n      mstore\n      keccak256(0x00, 0x20)\n      swap1\n    tag_42:\n      dup2\n      sload\n      dup2\n      mstore\n      swap1\n      0x01\n      add\n      swap1\n      0x20\n      add\n      dup1\n      dup4\n      gt\n      tag_42\n      jumpi\n      dup3\n      swap1\n      sub\n      0x1f\n      and\n      dup3\n      add\n      swap2\n    tag_40:\n      pop\n      pop\n      pop\n      pop\n      pop\n      swap1\n      dup1\n      0x01\n      add\n      sload\n      swap1\n      pop\n      dup3\n      jump\t// out\n        /* \"#utility.yul\":7:82   */\n    tag_43:\n        /* \"#utility.yul\":40:46   */\n      0x00\n        /* \"#utility.yul\":73:75   */\n      0x40\n        /* \"#utility.yul\":67:76   */\n      mload\n        /* \"#utility.yul\":57:76   */\n      swap1\n      pop\n        /* \"#utility.yul\":7:82   */\n      swap1\n      jump\t// out\n        /* \"#utility.yul\":88:205   */\n    tag_44:\n        /* \"#utility.yul\":197:198   */\n      0x00\n        /* \"#utility.yul\":194:195   */\n      dup1\n        /* \"#utility.yul\":187:199   */\n      revert\n        /* \"#utility.yul\":211:328   */\n    tag_45:\n        /* \"#utility.yul\":320:321   */\n      0x00\n        /* \"#utility.yul\":317:318   */\n      dup1\n        /* \"#utility.yul\":310:322   */\n      revert\n        /* \"#utility.yul\":334:451   */\n    tag_46:\n        /* \"#utility.yul\":443:444   */\n      0x00\n        /* \"#utility.yul\":440:441   */\n      dup1\n        /* \"#utility.yul\":433:445   */\n      revert\n        /* \"#utility.yul\":457:574   */\n    tag_47:\n        /* \"#utility.yul\":566:567   */\n      0x00\n        /* \"#utility.yul\":563:564   */\n      dup1\n        /* \"#utility.yul\":556:568   */\n      revert\n        /* \"#utility.yul\":580:682   */\n    tag_48:\n        /* \"#utility.yul\":621:627   */\n      0x00\n        /* \"#utility.yul\":672:674   */\n      0x1f\n        /* \"#utility.yul\":668:675   */\n      not\n        /* \"#utility.yul\":663:665   */\n      0x1f\n        /* \"#utility.yul\":656:661   */\n      dup4\n        /* \"#utility.yul\":652:666   */\n      add\n        /* \"#utility.yul\":648:676   */\n      and\n        /* \"#utility.yul\":638:676   */\n      swap1\n      pop\n        /* \"#utility.yul\":580:682   */\n      swap2\n      swap1\n      pop\n      jump\t// out\n        /* \"#utility.yul\":688:868   */\n    tag_49:\n        /* \"#utility.yul\":736:813   */\n      0x4e487b7100000000000000000000000000000000000000000000000000000000\n        /* \"#utility.yul\":733:734   */\n      0x00\n        /* \"#utility.yul\":726:814   */\n      mstore\n        /* \"#utility.yul\":833:837   */\n      0x41\n        /* \"#utility.yul\":830:831   */\n      0x04\n        /* \"#utility.yul\":823:838   */\n      mstore\n        /* \"#utility.yul\":857:861   */\n      0x24\n        /* \"#utility.yul\":854:855   */\n      0x00\n        /* \"#utility.yul\":847:862   */\n      revert\n        /* \"#utility.yul\":874:1155   */\n    tag_50:\n        /* \"#utility.yul\":957:984   */\n      tag_91\n        /* \"#utility.yul\":979:983   */\n      dup3\n        /* \"#utility.yul\":957:984   */\n      tag_48\n      jump\t// in\n    tag_91:\n        /* \"#utility.yul\":949:955   */\n      dup2\n        /* \"#utility.yul\":945:985   */\n      add\n        /* \"#utility.yul\":1087:1093   */\n      dup2\n        /* \"#utility.yul\":1075:1085   */\n      dup2\n        /* \"#utility.yul\":1072:1094   */\n      lt\n        /* \"#utility.yul\":1051:1069   */\n      0xffffffffffffffff\n        /* \"#utility.yul\":1039:1049   */\n      dup3\n        /* \"#utility.yul\":1036:1070   */\n      gt\n        /* \"#utility.yul\":1033:1095   */\n      or\n        /* \"#utility.yul\":1030:1118   */\n      iszero\n      tag_92\n      jumpi\n        /* \"#utility.yul\":1098:1116   */\n      tag_93\n      tag_49\n      jump\t// in\n    tag_93:\n        /* \"#utility.yul\":1030:1118   */\n    tag_92:\n        /* \"#utility.yul\":1138:1148   */\n      dup1\n        /* \"#utility.yul\":1134:1136   */\n      0x40\n        /* \"#utility.yul\":1127:1149   */\n      mstore\n        /* \"#utility.yul\":917:1155   */\n      pop\n        /* \"#utility.yul\":874:1155   */\n      pop\n      pop\n      jump\t// out\n        /* \"#utility.yul\":1161:1290   */\n    tag_51:\n        /* \"#utility.yul\":1195:1201   */\n      0x00\n        /* \"#utility.yul\":1222:1242   */\n      tag_95\n      tag_43\n      jump\t// in\n    tag_95:\n        /* \"#utility.yul\":1212:1242   */\n      swap1\n      pop\n        /* \"#utility.yul\":1251:1284   */\n      tag_96\n        /* \"#utility.yul\":1279:1283   */\n      dup3\n        /* \"#utility.yul\":1271:1277   */\n      dup3\n        /* \"#utility.yul\":1251:1284   */\n      tag_50\n      jump\t// in\n    tag_96:\n        /* \"#utility.yul\":1161:1290   */\n      swap2\n      swap1\n      pop\n      jump\t// out\n        /* \"#utility.yul\":1296:1604   */\n    tag_52:\n        /* \"#utility.yul\":1358:1362   */\n      0x00\n        /* \"#utility.yul\":1448:1466   */\n      0xffffffffffffffff\n        /* \"#utility.yul\":1440:1446   */\n      dup3\n        /* \"#utility.yul\":1437:1467   */\n      gt\n        /* \"#utility.yul\":1434:1490   */\n      iszero\n      tag_98\n      jumpi\n        /* \"#utility.yul\":1470:1488   */\n      tag_99\n      tag_49\n      jump\t// in\n    tag_99:\n        /* \"#utility.yul\":1434:1490   */\n    tag_98:\n        /* \"#utility.yul\":1508:1537   */\n      tag_100\n        /* \"#utility.yul\":1530:1536   */\n      dup3\n        /* \"#utility.yul\":1508:1537   */\n      tag_48\n      jump\t// in\n    tag_100:\n        /* \"#utility.yul\":1500:1537   */\n      swap1\n      pop\n        /* \"#utility.yul\":1592:1596   */\n      0x20\n        /* \"#utility.yul\":1586:1590   */\n      dup2\n        /* \"#utility.yul\":1582:1597   */\n      add\n        /* \"#utility.yul\":1574:1597   */\n      swap1\n      pop\n        /* \"#utility.yul\":1296:1604   */\n      swap2\n      swap1\n      pop\n      jump\t// out\n        /* \"#utility.yul\":1610:1756   */\n    tag_53:\n        /* \"#utility.yul\":1707:1713   */\n      dup3\n        /* \"#utility.yul\":1702:1705   */\n      dup2\n        /* \"#utility.yul\":1697:1700   */\n      dup4\n        /* \"#utility.yul\":1684:1714   */\n      calldatacopy\n        /* \"#utility.yul\":1748:1749   */\n      0x00\n        /* \"#utility.yul\":1739:1745   */\n      dup4\n        /* \"#utility.yul\":1734:1737   */\n      dup4\n        /* \"#utility.yul\":1730:1746   */\n      add\n        /* \"#utility.yul\":1723:1750   */\n      mstore\n        /* \"#utility.yul\":1610:1756   */\n      pop\n      pop\n      pop\n      jump\t// out\n        /* \"#utility.yul\":1762:2187   */\n    tag_54:\n        /* \"#utility.yul\":1840:1845   */\n      0x00\n        /* \"#utility.yul\":1865:1931   */\n      tag_103\n        /* \"#utility.yul\":1881:1930   */\n      tag_104\n        /* \"#utility.yul\":1923:1929   */\n      dup5\n        /* \"#utility.yul\":1881:1930   */\n      tag_52\n      jump\t// in\n    tag_104:\n        /* \"#utility.yul\":1865:1931   */\n      tag_51\n      jump\t// in\n    tag_103:\n        /* \"#utility.yul\":1856:1931   */\n      swap1\n      pop\n        /* \"#utility.yul\":1954:1960   */\n      dup3\n        /* \"#utility.yul\":1947:1952   */\n      dup2\n        /* \"#utility.yul\":1940:1961   */\n      mstore\n        /* \"#utility.yul\":1992:1996   */\n      0x20\n        /* \"#utility.yul\":1985:1990   */\n      dup2\n        /* \"#utility.yul\":1981:1997   */\n      add\n        /* \"#utility.yul\":2030:2033   */\n      dup5\n        /* \"#utility.yul\":2021:2027   */\n      dup5\n        /* \"#utility.yul\":2016:2019   */\n      dup5\n        /* \"#utility.yul\":2012:2028   */\n      add\n        /* \"#utility.yul\":2009:2034   */\n      gt\n        /* \"#utility.yul\":2006:2118   */\n      iszero\n      tag_105\n      jumpi\n        /* \"#utility.yul\":2037:2116   */\n      tag_106\n      tag_47\n      jump\t// in\n    tag_106:\n        /* \"#utility.yul\":2006:2118   */\n    tag_105:\n        /* \"#utility.yul\":2127:2181   */\n      tag_107\n        /* \"#utility.yul\":2174:2180   */\n      dup5\n        /* \"#utility.yul\":2169:2172   */\n      dup3\n        /* \"#utility.yul\":2164:2167   */\n      dup6\n        /* \"#utility.yul\":2127:2181   */\n      tag_53\n      jump\t// in\n    tag_107:\n        /* \"#utility.yul\":1846:2187   */\n      pop\n        /* \"#utility.yul\":1762:2187   */\n      swap4\n      swap3\n      pop\n      pop\n      pop\n      jump\t// out\n        /* \"#utility.yul\":2207:2547   */\n    tag_55:\n        /* \"#utility.yul\":2263:2268   */\n      0x00\n        /* \"#utility.yul\":2312:2315   */\n      dup3\n        /* \"#utility.yul\":2305:2309   */\n      0x1f\n        /* \"#utility.yul\":2297:2303   */\n      dup4\n        /* \"#utility.yul\":2293:2310   */\n      add\n        /* \"#utility.yul\":2289:2316   */\n      slt\n        /* \"#utility.yul\":2279:2401   */\n      tag_109\n      jumpi\n        /* \"#utility.yul\":2320:2399   */\n      tag_110\n      tag_46\n      jump\t// in\n    tag_110:\n        /* \"#utility.yul\":2279:2401   */\n    tag_109:\n        /* \"#utility.yul\":2437:2443   */\n      dup2\n        /* \"#utility.yul\":2424:2444   */\n      calldataload\n        /* \"#utility.yul\":2462:2541   */\n      tag_111\n        /* \"#utility.yul\":2537:2540   */\n      dup5\n        /* \"#utility.yul\":2529:2535   */\n      dup3\n        /* \"#utility.yul\":2522:2526   */\n      0x20\n        /* \"#utility.yul\":2514:2520   */\n      dup7\n        /* \"#utility.yul\":2510:2527   */\n      add\n        /* \"#utility.yul\":2462:2541   */\n      tag_54\n      jump\t// in\n    tag_111:\n        /* \"#utility.yul\":2453:2541   */\n      swap2\n      pop\n        /* \"#utility.yul\":2269:2547   */\n      pop\n        /* \"#utility.yul\":2207:2547   */\n      swap3\n      swap2\n      pop\n      pop\n      jump\t// out\n        /* \"#utility.yul\":2553:3062   */\n    tag_9:\n        /* \"#utility.yul\":2622:2628   */\n      0x00\n        /* \"#utility.yul\":2671:2673   */\n      0x20\n        /* \"#utility.yul\":2659:2668   */\n      dup3\n        /* \"#utility.yul\":2650:2657   */\n      dup5\n        /* \"#utility.yul\":2646:2669   */\n      sub\n        /* \"#utility.yul\":2642:2674   */\n      slt\n        /* \"#utility.yul\":2639:2758   */\n      iszero\n      tag_113\n      jumpi\n        /* \"#utility.yul\":2677:2756   */\n      tag_114\n      tag_44\n      jump\t// in\n    tag_114:\n        /* \"#utility.yul\":2639:2758   */\n    tag_113:\n        /* \"#utility.yul\":2825:2826   */\n      0x00\n        /* \"#utility.yul\":2814:2823   */\n      dup3\n        /* \"#utility.yul\":2810:2827   */\n      add\n        /* \"#utility.yul\":2797:2828   */\n      calldataload\n        /* \"#utility.yul\":2855:2873   */\n      0xffffffffffffffff\n        /* \"#utility.yul\":2847:2853   */\n      dup2\n        /* \"#utility.yul\":2844:2874   */\n      gt\n        /* \"#utility.yul\":2841:2958   */\n      iszero\n      tag_115\n      jumpi\n        /* \"#utility.yul\":2877:2956   */\n      tag_116\n      tag_45\n      jump\t// in\n    tag_116:\n        /* \"#utility.yul\":2841:2958   */\n    tag_115:\n        /* \"#utility.yul\":2982:3045   */\n      tag_117\n        /* \"#utility.yul\":3037:3044   */\n      dup5\n        /* \"#utility.yul\":3028:3034   */\n      dup3\n        /* \"#utility.yul\":3017:3026   */\n      dup6\n        /* \"#utility.yul\":3013:3035   */\n      add\n        /* \"#utility.yul\":2982:3045   */\n      tag_55\n      jump\t// in\n    tag_117:\n        /* \"#utility.yul\":2972:3045   */\n      swap2\n      pop\n        /* \"#utility.yul\":2768:3055   */\n      pop\n        /* \"#utility.yul\":2553:3062   */\n      swap3\n      swap2\n      pop\n      pop\n      jump\t// out\n        /* \"#utility.yul\":3068:3145   */\n    tag_56:\n        /* \"#utility.yul\":3105:3112   */\n      0x00\n        /* \"#utility.yul\":3134:3139   */\n      dup2\n        /* \"#utility.yul\":3123:3139   */\n      swap1\n      pop\n        /* \"#utility.yul\":3068:3145   */\n      swap2\n      swap1\n      pop\n      jump\t// out\n        /* \"#utility.yul\":3151:3269   */\n    tag_57:\n        /* \"#utility.yul\":3238:3262   */\n      tag_120\n        /* \"#utility.yul\":3256:3261   */\n      dup2\n        /* \"#utility.yul\":3238:3262   */\n      tag_56\n      jump\t// in\n    tag_120:\n        /* \"#utility.yul\":3233:3236   */\n      dup3\n        /* \"#utility.yul\":3226:3263   */\n      mstore\n        /* \"#utility.yul\":3151:3269   */\n      pop\n      pop\n      jump\t// out\n        /* \"#utility.yul\":3275:3497   */\n    tag_12:\n        /* \"#utility.yul\":3368:3372   */\n      0x00\n        /* \"#utility.yul\":3406:3408   */\n      0x20\n        /* \"#utility.yul\":3395:3404   */\n      dup3\n        /* \"#utility.yul\":3391:3409   */\n      add\n        /* \"#utility.yul\":3383:3409   */\n      swap1\n      pop\n        /* \"#utility.yul\":3419:3490   */\n      tag_122\n        /* \"#utility.yul\":3487:3488   */\n      0x00\n        /* \"#utility.yul\":3476:3485   */\n      dup4\n        /* \"#utility.yul\":3472:3489   */\n      add\n        /* \"#utility.yul\":3463:3469   */\n      dup5\n        /* \"#utility.yul\":3419:3490   */\n      tag_57\n      jump\t// in\n    tag_122:\n        /* \"#utility.yul\":3275:3497   */\n      swap3\n      swap2\n      pop\n      pop\n      jump\t// out\n        /* \"#utility.yul\":3503:3625   */\n    tag_58:\n        /* \"#utility.yul\":3576:3600   */\n      tag_124\n        /* \"#utility.yul\":3594:3599   */\n      dup2\n        /* \"#utility.yul\":3576:3600   */\n      tag_56\n      jump\t// in\n    tag_124:\n        /* \"#utility.yul\":3569:3574   */\n      dup2\n        /* \"#utility.yul\":3566:3601   */\n      eq\n        /* \"#utility.yul\":3556:3619   */\n      tag_125\n      jumpi\n        /* \"#utility.yul\":3615:3616   */\n      0x00\n        /* \"#utility.yul\":3612:3613   */\n      dup1\n        /* \"#utility.yul\":3605:3617   */\n      revert\n        /* \"#utility.yul\":3556:3619   */\n    tag_125:\n        /* \"#utility.yul\":3503:3625   */\n      pop\n      jump\t// out\n        /* \"#utility.yul\":3631:3770   */\n    tag_59:\n        /* \"#utility.yul\":3677:3682   */\n      0x00\n        /* \"#utility.yul\":3715:3721   */\n      dup2\n        /* \"#utility.yul\":3702:3722   */\n      calldataload\n        /* \"#utility.yul\":3693:3722   */\n      swap1\n      pop\n        /* \"#utility.yul\":3731:3764   */\n      tag_127\n        /* \"#utility.yul\":3758:3763   */\n      dup2\n        /* \"#utility.yul\":3731:3764   */\n      tag_58\n      jump\t// in\n    tag_127:\n        /* \"#utility.yul\":3631:3770   */\n      swap3\n      swap2\n      pop\n      pop\n      jump\t// out\n        /* \"#utility.yul\":3776:4430   */\n    tag_15:\n        /* \"#utility.yul\":3854:3860   */\n      0x00\n        /* \"#utility.yul\":3862:3868   */\n      dup1\n        /* \"#utility.yul\":3911:3913   */\n      0x40\n        /* \"#utility.yul\":3899:3908   */\n      dup4\n        /* \"#utility.yul\":3890:3897   */\n      dup6\n        /* \"#utility.yul\":3886:3909   */\n      sub\n        /* \"#utility.yul\":3882:3914   */\n      slt\n        /* \"#utility.yul\":3879:3998   */\n      iszero\n      tag_129\n      jumpi\n        /* \"#utility.yul\":3917:3996   */\n      tag_130\n      tag_44\n      jump\t// in\n    tag_130:\n        /* \"#utility.yul\":3879:3998   */\n    tag_129:\n        /* \"#utility.yul\":4065:4066   */\n      0x00\n        /* \"#utility.yul\":4054:4063   */\n      dup4\n        /* \"#utility.yul\":4050:4067   */\n      add\n        /* \"#utility.yul\":4037:4068   */\n      calldataload\n        /* \"#utility.yul\":4095:4113   */\n      0xffffffffffffffff\n        /* \"#utility.yul\":4087:4093   */\n      dup2\n        /* \"#utility.yul\":4084:4114   */\n      gt\n        /* \"#utility.yul\":4081:4198   */\n      iszero\n      tag_131\n      jumpi\n        /* \"#utility.yul\":4117:4196   */\n      tag_132\n      tag_45\n      jump\t// in\n    tag_132:\n        /* \"#utility.yul\":4081:4198   */\n    tag_131:\n        /* \"#utility.yul\":4222:4285   */\n      tag_133\n        /* \"#utility.yul\":4277:4284   */\n      dup6\n        /* \"#utility.yul\":4268:4274   */\n      dup3\n        /* \"#utility.yul\":4257:4266   */\n      dup7\n        /* \"#utility.yul\":4253:4275   */\n      add\n        /* \"#utility.yul\":4222:4285   */\n      tag_55\n      jump\t// in\n    tag_133:\n        /* \"#utility.yul\":4212:4285   */\n      swap3\n      pop\n        /* \"#utility.yul\":4008:4295   */\n      pop\n        /* \"#utility.yul\":4334:4336   */\n      0x20\n        /* \"#utility.yul\":4360:4413   */\n      tag_134\n        /* \"#utility.yul\":4405:4412   */\n      dup6\n        /* \"#utility.yul\":4396:4402   */\n      dup3\n        /* \"#utility.yul\":4385:4394   */\n      dup7\n        /* \"#utility.yul\":4381:4403   */\n      add\n        /* \"#utility.yul\":4360:4413   */\n      tag_59\n      jump\t// in\n    tag_134:\n        /* \"#utility.yul\":4350:4413   */\n      swap2\n      pop\n        /* \"#utility.yul\":4305:4423   */\n      pop\n        /* \"#utility.yul\":3776:4430   */\n      swap3\n      pop\n      swap3\n      swap1\n      pop\n      jump\t// out\n        /* \"#utility.yul\":4436:4765   */\n    tag_23:\n        /* \"#utility.yul\":4495:4501   */\n      0x00\n        /* \"#utility.yul\":4544:4546   */\n      0x20\n        /* \"#utility.yul\":4532:4541   */\n      dup3\n        /* \"#utility.yul\":4523:4530   */\n      dup5\n        /* \"#utility.yul\":4519:4542   */\n      sub\n        /* \"#utility.yul\":4515:4547   */\n      slt\n        /* \"#utility.yul\":4512:4631   */\n      iszero\n      tag_136\n      jumpi\n        /* \"#utility.yul\":4550:4629   */\n      tag_137\n      tag_44\n      jump\t// in\n    tag_137:\n        /* \"#utility.yul\":4512:4631   */\n    tag_136:\n        /* \"#utility.yul\":4670:4671   */\n      0x00\n        /* \"#utility.yul\":4695:4748   */\n      tag_138\n        /* \"#utility.yul\":4740:4747   */\n      dup5\n        /* \"#utility.yul\":4731:4737   */\n      dup3\n        /* \"#utility.yul\":4720:4729   */\n      dup6\n        /* \"#utility.yul\":4716:4738   */\n      add\n        /* \"#utility.yul\":4695:4748   */\n      tag_59\n      jump\t// in\n    tag_138:\n        /* \"#utility.yul\":4685:4748   */\n      swap2\n      pop\n        /* \"#utility.yul\":4641:4758   */\n      pop\n        /* \"#utility.yul\":4436:4765   */\n      swap3\n      swap2\n      pop\n      pop\n      jump\t// out\n        /* \"#utility.yul\":4771:4870   */\n    tag_60:\n        /* \"#utility.yul\":4823:4829   */\n      0x00\n        /* \"#utility.yul\":4857:4862   */\n      dup2\n        /* \"#utility.yul\":4851:4863   */\n      mload\n        /* \"#utility.yul\":4841:4863   */\n      swap1\n      pop\n        /* \"#utility.yul\":4771:4870   */\n      swap2\n      swap1\n      pop\n      jump\t// out\n        /* \"#utility.yul\":4876:5045   */\n    tag_61:\n        /* \"#utility.yul\":4960:4971   */\n      0x00\n        /* \"#utility.yul\":4994:5000   */\n      dup3\n        /* \"#utility.yul\":4989:4992   */\n      dup3\n        /* \"#utility.yul\":4982:5001   */\n      mstore\n        /* \"#utility.yul\":5034:5038   */\n      0x20\n        /* \"#utility.yul\":5029:5032   */\n      dup3\n        /* \"#utility.yul\":5025:5039   */\n      add\n        /* \"#utility.yul\":5010:5039   */\n      swap1\n      pop\n        /* \"#utility.yul\":4876:5045   */\n      swap3\n      swap2\n      pop\n      pop\n      jump\t// out\n        /* \"#utility.yul\":5051:5297   */\n    tag_62:\n        /* \"#utility.yul\":5132:5133   */\n      0x00\n        /* \"#utility.yul\":5142:5255   */\n    tag_142:\n        /* \"#utility.yul\":5156:5162   */\n      dup4\n        /* \"#utility.yul\":5153:5154   */\n      dup2\n        /* \"#utility.yul\":5150:5163   */\n      lt\n        /* \"#utility.yul\":5142:5255   */\n      iszero\n      tag_144\n      jumpi\n        /* \"#utility.yul\":5241:5242   */\n      dup1\n        /* \"#utility.yul\":5236:5239   */\n      dup3\n        /* \"#utility.yul\":5232:5243   */\n      add\n        /* \"#utility.yul\":5226:5244   */\n      mload\n        /* \"#utility.yul\":5222:5223   */\n      dup2\n        /* \"#utility.yul\":5217:5220   */\n      dup5\n        /* \"#utility.yul\":5213:5224   */\n      add\n        /* \"#utility.yul\":5206:5245   */\n      mstore\n        /* \"#utility.yul\":5178:5180   */\n      0x20\n        /* \"#utility.yul\":5175:5176   */\n      dup2\n        /* \"#utility.yul\":5171:5181   */\n      add\n        /* \"#utility.yul\":5166:5181   */\n      swap1\n      pop\n        /* \"#utility.yul\":5142:5255   */\n      jump(tag_142)\n    tag_144:\n        /* \"#utility.yul\":5289:5290   */\n      0x00\n        /* \"#utility.yul\":5280:5286   */\n      dup5\n        /* \"#utility.yul\":5275:5278   */\n      dup5\n        /* \"#utility.yul\":5271:5287   */\n      add\n        /* \"#utility.yul\":5264:5291   */\n      mstore\n        /* \"#utility.yul\":5113:5297   */\n      pop\n        /* \"#utility.yul\":5051:5297   */\n      pop\n      pop\n      pop\n      jump\t// out\n        /* \"#utility.yul\":5303:5680   */\n    tag_63:\n        /* \"#utility.yul\":5391:5394   */\n      0x00\n        /* \"#utility.yul\":5419:5458   */\n      tag_146\n        /* \"#utility.yul\":5452:5457   */\n      dup3\n        /* \"#utility.yul\":5419:5458   */\n      tag_60\n      jump\t// in\n    tag_146:\n        /* \"#utility.yul\":5474:5545   */\n      tag_147\n        /* \"#utility.yul\":5538:5544   */\n      dup2\n        /* \"#utility.yul\":5533:5536   */\n      dup6\n        /* \"#utility.yul\":5474:5545   */\n      tag_61\n      jump\t// in\n    tag_147:\n        /* \"#utility.yul\":5467:5545   */\n      swap4\n      pop\n        /* \"#utility.yul\":5554:5619   */\n      tag_148\n        /* \"#utility.yul\":5612:5618   */\n      dup2\n        /* \"#utility.yul\":5607:5610   */\n      dup6\n        /* \"#utility.yul\":5600:5604   */\n      0x20\n        /* \"#utility.yul\":5593:5598   */\n      dup7\n        /* \"#utility.yul\":5589:5605   */\n      add\n        /* \"#utility.yul\":5554:5619   */\n      tag_62\n      jump\t// in\n    tag_148:\n        /* \"#utility.yul\":5644:5673   */\n      tag_149\n        /* \"#utility.yul\":5666:5672   */\n      dup2\n        /* \"#utility.yul\":5644:5673   */\n      tag_48\n      jump\t// in\n    tag_149:\n        /* \"#utility.yul\":5639:5642   */\n      dup5\n        /* \"#utility.yul\":5635:5674   */\n      add\n        /* \"#utility.yul\":5628:5674   */\n      swap2\n      pop\n        /* \"#utility.yul\":5395:5680   */\n      pop\n        /* \"#utility.yul\":5303:5680   */\n      swap3\n      swap2\n      pop\n      pop\n      jump\t// out\n        /* \"#utility.yul\":5686:6109   */\n    tag_26:\n        /* \"#utility.yul\":5827:5831   */\n      0x00\n        /* \"#utility.yul\":5865:5867   */\n      0x40\n        /* \"#utility.yul\":5854:5863   */\n      dup3\n        /* \"#utility.yul\":5850:5868   */\n      add\n        /* \"#utility.yul\":5842:5868   */\n      swap1\n      pop\n        /* \"#utility.yul\":5914:5923   */\n      dup2\n        /* \"#utility.yul\":5908:5912   */\n      dup2\n        /* \"#utility.yul\":5904:5924   */\n      sub\n        /* \"#utility.yul\":5900:5901   */\n      0x00\n        /* \"#utility.yul\":5889:5898   */\n      dup4\n        /* \"#utility.yul\":5885:5902   */\n      add\n        /* \"#utility.yul\":5878:5925   */\n      mstore\n        /* \"#utility.yul\":5942:6020   */\n      tag_151\n        /* \"#utility.yul\":6015:6019   */\n      dup2\n        /* \"#utility.yul\":6006:6012   */\n      dup6\n        /* \"#utility.yul\":5942:6020   */\n      tag_63\n      jump\t// in\n    tag_151:\n        /* \"#utility.yul\":5934:6020   */\n      swap1\n      pop\n        /* \"#utility.yul\":6030:6102   */\n      tag_152\n        /* \"#utility.yul\":6098:6100   */\n      0x20\n        /* \"#utility.yul\":6087:6096   */\n      dup4\n        /* \"#utility.yul\":6083:6101   */\n      add\n        /* \"#utility.yul\":6074:6080   */\n      dup5\n        /* \"#utility.yul\":6030:6102   */\n      tag_57\n      jump\t// in\n    tag_152:\n        /* \"#utility.yul\":5686:6109   */\n      swap4\n      swap3\n      pop\n      pop\n      pop\n      jump\t// out\n        /* \"#utility.yul\":6115:6263   */\n    tag_64:\n        /* \"#utility.yul\":6217:6228   */\n      0x00\n        /* \"#utility.yul\":6254:6257   */\n      dup2\n        /* \"#utility.yul\":6239:6257   */\n      swap1\n      pop\n        /* \"#utility.yul\":6115:6263   */\n      swap3\n      swap2\n      pop\n      pop\n      jump\t// out\n        /* \"#utility.yul\":6269:6659   */\n    tag_65:\n        /* \"#utility.yul\":6375:6378   */\n      0x00\n        /* \"#utility.yul\":6403:6442   */\n      tag_155\n        /* \"#utility.yul\":6436:6441   */\n      dup3\n        /* \"#utility.yul\":6403:6442   */\n      tag_60\n      jump\t// in\n    tag_155:\n        /* \"#utility.yul\":6458:6547   */\n      tag_156\n        /* \"#utility.yul\":6540:6546   */\n      dup2\n        /* \"#utility.yul\":6535:6538   */\n      dup6\n        /* \"#utility.yul\":6458:6547   */\n      tag_64\n      jump\t// in\n    tag_156:\n        /* \"#utility.yul\":6451:6547   */\n      swap4\n      pop\n        /* \"#utility.yul\":6556:6621   */\n      tag_157\n        /* \"#utility.yul\":6614:6620   */\n      dup2\n        /* \"#utility.yul\":6609:6612   */\n      dup6\n        /* \"#utility.yul\":6602:6606   */\n      0x20\n        /* \"#utility.yul\":6595:6600   */\n      dup7\n        /* \"#utility.yul\":6591:6607   */\n      add\n        /* \"#utility.yul\":6556:6621   */\n      tag_62\n      jump\t// in\n    tag_157:\n        /* \"#utility.yul\":6646:6652   */\n      dup1\n        /* \"#utility.yul\":6641:6644   */\n      dup5\n        /* \"#utility.yul\":6637:6653   */\n      add\n        /* \"#utility.yul\":6630:6653   */\n      swap2\n      pop\n        /* \"#utility.yul\":6379:6659   */\n      pop\n        /* \"#utility.yul\":6269:6659   */\n      swap3\n      swap2\n      pop\n      pop\n      jump\t// out\n        /* \"#utility.yul\":6665:6940   */\n    tag_29:\n        /* \"#utility.yul\":6797:6800   */\n      0x00\n        /* \"#utility.yul\":6819:6914   */\n      tag_159\n        /* \"#utility.yul\":6910:6913   */\n      dup3\n        /* \"#utility.yul\":6901:6907   */\n      dup5\n        /* \"#utility.yul\":6819:6914   */\n      tag_65\n      jump\t// in\n    tag_159:\n        /* \"#utility.yul\":6812:6914   */\n      swap2\n      pop\n        /* \"#utility.yul\":6931:6934   */\n      dup2\n        /* \"#utility.yul\":6924:6934   */\n      swap1\n      pop\n        /* \"#utility.yul\":6665:6940   */\n      swap3\n      swap2\n      pop\n      pop\n      jump\t// out\n        /* \"#utility.yul\":6946:7126   */\n    tag_66:\n        /* \"#utility.yul\":6994:7071   */\n      0x4e487b7100000000000000000000000000000000000000000000000000000000\n        /* \"#utility.yul\":6991:6992   */\n      0x00\n        /* \"#utility.yul\":6984:7072   */\n      mstore\n        /* \"#utility.yul\":7091:7095   */\n      0x22\n        /* \"#utility.yul\":7088:7089   */\n      0x04\n        /* \"#utility.yul\":7081:7096   */\n      mstore\n        /* \"#utility.yul\":7115:7119   */\n      0x24\n        /* \"#utility.yul\":7112:7113   */\n      0x00\n        /* \"#utility.yul\":7105:7120   */\n      revert\n        /* \"#utility.yul\":7132:7452   */\n    tag_38:\n        /* \"#utility.yul\":7176:7182   */\n      0x00\n        /* \"#utility.yul\":7213:7214   */\n      0x02\n        /* \"#utility.yul\":7207:7211   */\n      dup3\n        /* \"#utility.yul\":7203:7215   */\n      div\n        /* \"#utility.yul\":7193:7215   */\n      swap1\n      pop\n        /* \"#utility.yul\":7260:7261   */\n      0x01\n        /* \"#utility.yul\":7254:7258   */\n      dup3\n        /* \"#utility.yul\":7250:7262   */\n      and\n        /* \"#utility.yul\":7281:7299   */\n      dup1\n        /* \"#utility.yul\":7271:7352   */\n      tag_162\n      jumpi\n        /* \"#utility.yul\":7337:7341   */\n      0x7f\n        /* \"#utility.yul\":7329:7335   */\n      dup3\n        /* \"#utility.yul\":7325:7342   */\n      and\n        /* \"#utility.yul\":7315:7342   */\n      swap2\n      pop\n        /* \"#utility.yul\":7271:7352   */\n    tag_162:\n        /* \"#utility.yul\":7399:7401   */\n      0x20\n        /* \"#utility.yul\":7391:7397   */\n      dup3\n        /* \"#utility.yul\":7388:7402   */\n      lt\n        /* \"#utility.yul\":7368:7386   */\n      dup2\n        /* \"#utility.yul\":7365:7403   */\n      sub\n        /* \"#utility.yul\":7362:7446   */\n      tag_163\n      jumpi\n        /* \"#utility.yul\":7418:7436   */\n      tag_164\n      tag_66\n      jump\t// in\n    tag_164:\n        /* \"#utility.yul\":7362:7446   */\n    tag_163:\n        /* \"#utility.yul\":7183:7452   */\n      pop\n        /* \"#utility.yul\":7132:7452   */\n      swap2\n      swap1\n      pop\n      jump\t// out\n        /* \"#utility.yul\":7458:7599   */\n    tag_67:\n        /* \"#utility.yul\":7507:7511   */\n      0x00\n        /* \"#utility.yul\":7530:7533   */\n      dup2\n        /* \"#utility.yul\":7522:7533   */\n      swap1\n      pop\n        /* \"#utility.yul\":7553:7556   */\n      dup2\n        /* \"#utility.yul\":7550:7551   */\n      0x00\n        /* \"#utility.yul\":7543:7557   */\n      mstore\n        /* \"#utility.yul\":7587:7591   */\n      0x20\n        /* \"#utility.yul\":7584:7585   */\n      0x00\n        /* \"#utility.yul\":7574:7592   */\n      keccak256\n        /* \"#utility.yul\":7566:7592   */\n      swap1\n      pop\n        /* \"#utility.yul\":7458:7599   */\n      swap2\n      swap1\n      pop\n      jump\t// out\n        /* \"#utility.yul\":7605:7698   */\n    tag_68:\n        /* \"#utility.yul\":7642:7648   */\n      0x00\n        /* \"#utility.yul\":7689:7691   */\n      0x20\n        /* \"#utility.yul\":7684:7686   */\n      0x1f\n        /* \"#utility.yul\":7677:7682   */\n      dup4\n        /* \"#utility.yul\":7673:7687   */\n      add\n        /* \"#utility.yul\":7669:7692   */\n      div\n        /* \"#utility.yul\":7659:7692   */\n      swap1\n      pop\n        /* \"#utility.yul\":7605:7698   */\n      swap2\n      swap1\n      pop\n      jump\t// out\n        /* \"#utility.yul\":7704:7811   */\n    tag_69:\n        /* \"#utility.yul\":7748:7756   */\n      0x00\n        /* \"#utility.yul\":7798:7803   */\n      dup3\n        /* \"#utility.yul\":7792:7796   */\n      dup3\n        /* \"#utility.yul\":7788:7804   */\n      shl\n        /* \"#utility.yul\":7767:7804   */\n      swap1\n      pop\n        /* \"#utility.yul\":7704:7811   */\n      swap3\n      swap2\n      pop\n      pop\n      jump\t// out\n        /* \"#utility.yul\":7817:8210   */\n    tag_70:\n        /* \"#utility.yul\":7886:7892   */\n      0x00\n        /* \"#utility.yul\":7936:7937   */\n      0x08\n        /* \"#utility.yul\":7924:7934   */\n      dup4\n        /* \"#utility.yul\":7920:7938   */\n      mul\n        /* \"#utility.yul\":7959:8056   */\n      tag_169\n        /* \"#utility.yul\":7989:8055   */\n      0xffffffffffffffffffffffffffffffffffffffffffffffffffffffffffffffff\n        /* \"#utility.yul\":7978:7987   */\n      dup3\n        /* \"#utility.yul\":7959:8056   */\n      tag_69\n      jump\t// in\n    tag_169:\n        /* \"#utility.yul\":8077:8116   */\n      tag_170\n        /* \"#utility.yul\":8107:8115   */\n      dup7\n        /* \"#utility.yul\":8096:8105   */\n      dup4\n        /* \"#utility.yul\":8077:8116   */\n      tag_69\n      jump\t// in\n    tag_170:\n        /* \"#utility.yul\":8065:8116   */\n      swap6\n      pop\n        /* \"#utility.yul\":8149:8153   */\n      dup1\n        /* \"#utility.yul\":8145:8154   */\n      not\n        /* \"#utility.yul\":8138:8143   */\n      dup5\n        /* \"#utility.yul\":8134:8155   */\n      and\n        /* \"#utility.yul\":8125:8155   */\n      swap4\n      pop\n        /* \"#utility.yul\":8198:8202   */\n      dup1\n        /* \"#utility.yul\":8188:8196   */\n      dup7\n        /* \"#utility.yul\":8184:8203   */\n      and\n        /* \"#utility.yul\":8177:8182   */\n      dup5\n        /* \"#utility.yul\":8174:8204   */\n      or\n        /* \"#utility.yul\":8164:8204   */\n      swap3\n      pop\n        /* \"#utility.yul\":7893:8210   */\n      pop\n      pop\n        /* \"#utility.yul\":7817:8210   */\n      swap4\n      swap3\n      pop\n      pop\n      pop\n      jump\t// out\n        /* \"#utility.yul\":8216:8276   */\n    tag_71:\n        /* \"#utility.yul\":8244:8247   */\n      0x00\n        /* \"#utility.yul\":8265:8270   */\n      dup2\n        /* \"#utility.yul\":8258:8270   */\n      swap1\n      pop\n        /* \"#utility.yul\":8216:8276   */\n      swap2\n      swap1\n      pop\n      jump\t// out\n        /* \"#utility.yul\":8282:8424   */\n    tag_72:\n        /* \"#utility.yul\":8332:8341   */\n      0x00\n        /* \"#utility.yul\":8365:8418   */\n      tag_173\n        /* \"#utility.yul\":8383:8417   */\n      tag_174\n        /* \"#utility.yul\":8392:8416   */\n      tag_175\n        /* \"#utility.yul\":8410:8415   */\n      dup5\n        /* \"#utility.yul\":8392:8416   */\n      tag_56\n      jump\t// in\n    tag_175:\n        /* \"#utility.yul\":8383:8417   */\n      tag_71\n      jump\t// in\n    tag_174:\n        /* \"#utility.yul\":8365:8418   */\n      tag_56\n      jump\t// in\n    tag_173:\n        /* \"#utility.yul\":8352:8418   */\n      swap1\n      pop\n        /* \"#utility.yul\":8282:8424   */\n      swap2\n      swap1\n      pop\n      jump\t// out\n        /* \"#utility.yul\":8430:8505   */\n    tag_73:\n        /* \"#utility.yul\":8473:8476   */\n      0x00\n        /* \"#utility.yul\":8494:8499   */\n      dup2\n        /* \"#utility.yul\":8487:8499   */\n      swap1\n      pop\n        /* \"#utility.yul\":8430:8505   */\n      swap2\n      swap1\n      pop\n      jump\t// out\n        /* \"#utility.yul\":8511:8780   */\n    tag_74:\n        /* \"#utility.yul\":8621:8660   */\n      tag_178\n        /* \"#utility.yul\":8652:8659   */\n      dup4\n        /* \"#utility.yul\":8621:8660   */\n      tag_72\n      jump\t// in\n    tag_178:\n        /* \"#utility.yul\":8682:8773   */\n      tag_179\n        /* \"#utility.yul\":8731:8772   */\n      tag_180\n        /* \"#utility.yul\":8755:8771   */\n      dup3\n        /* \"#utility.yul\":8731:8772   */\n      tag_73\n      jump\t// in\n    tag_180:\n        /* \"#utility.yul\":8723:8729   */\n      dup5\n        /* \"#utility.yul\":8716:8720   */\n      dup5\n        /* \"#utility.yul\":8710:8721   */\n      sload\n        /* \"#utility.yul\":8682:8773   */\n      tag_70\n      jump\t// in\n    tag_179:\n        /* \"#utility.yul\":8676:8680   */\n      dup3\n        /* \"#utility.yul\":8669:8774   */\n      sstore\n        /* \"#utility.yul\":8587:8780   */\n      pop\n        /* \"#utility.yul\":8511:8780   */\n      pop\n      pop\n      pop\n      jump\t// out\n        /* \"#utility.yul\":8786:8859   */\n    tag_75:\n        /* \"#utility.yul\":8831:8834   */\n      0x00\n        /* \"#utility.yul\":8786:8859   */\n      swap1\n      jump\t// out\n        /* \"#utility.yul\":8865:9054   */\n    tag_76:\n        /* \"#utility.yul\":8942:8974   */\n      tag_183\n      tag_75\n      jump\t// in\n    tag_183:\n        /* \"#utility.yul\":8983:9048   */\n      tag_184\n        /* \"#utility.yul\":9041:9047   */\n      dup2\n        /* \"#utility.yul\":9033:9039   */\n      dup5\n        /* \"#utility.yul\":9027:9031   */\n      dup5\n        /* \"#utility.yul\":8983:9048   */\n      tag_74\n      jump\t// in\n    tag_184:\n        /* \"#utility.yul\":8918:9054   */\n      pop\n        /* \"#utility.yul\":8865:9054   */\n      pop\n      pop\n      jump\t// out\n        /* \"#utility.yul\":9060:9246   */\n    tag_77:\n        /* \"#utility.yul\":9120:9240   */\n    tag_186:\n        /* \"#utility.yul\":9137:9140   */\n      dup2\n        /* \"#utility.yul\":9130:9135   */\n      dup2\n        /* \"#utility.yul\":9127:9141   */\n      lt\n        /* \"#utility.yul\":9120:9240   */\n      iszero\n      tag_188\n      jumpi\n        /* \"#utility.yul\":9191:9230   */\n      tag_189\n        /* \"#utility.yul\":9228:9229   */\n      0x00\n        /* \"#utility.yul\":9221:9226   */\n      dup3\n        /* \"#utility.yul\":9191:9230   */\n      tag_76\n      jump\t// in\n    tag_189:\n        /* \"#utility.yul\":9164:9165   */\n      0x01\n        /* \"#utility.yul\":9157:9162   */\n      dup2\n        /* \"#utility.yul\":9153:9166   */\n      add\n        /* \"#utility.yul\":9144:9166   */\n      swap1\n      pop\n        /* \"#utility.yul\":9120:9240   */\n      jump(tag_186)\n    tag_188:\n        /* \"#utility.yul\":9060:9246   */\n      pop\n      pop\n      jump\t// out\n        /* \"#utility.yul\":9252:9795   */\n    tag_78:\n        /* \"#utility.yul\":9353:9355   */\n      0x1f\n        /* \"#utility.yul\":9348:9351   */\n      dup3\n        /* \"#utility.yul\":9345:9356   */\n      gt\n        /* \"#utility.yul\":9342:9788   */\n      iszero\n      tag_191\n      jumpi\n        /* \"#utility.yul\":9387:9425   */\n      tag_192\n        /* \"#utility.yul\":9419:9424   */\n      dup2\n        /* \"#utility.yul\":9387:9425   */\n      tag_67\n      jump\t// in\n    tag_192:\n        /* \"#utility.yul\":9471:9500   */\n      tag_193\n        /* \"#utility.yul\":9489:9499   */\n      dup5\n        /* \"#utility.yul\":9471:9500   */\n      tag_68\n      jump\t// in\n    tag_193:\n        /* \"#utility.yul\":9461:9469   */\n      dup2\n        /* \"#utility.yul\":9457:9501   */\n      add\n        /* \"#utility.yul\":9654:9656   */\n      0x20\n        /* \"#utility.yul\":9642:9652   */\n      dup6\n        /* \"#utility.yul\":9639:9657   */\n      lt\n        /* \"#utility.yul\":9636:9685   */\n      iszero\n      tag_194\n      jumpi\n        /* \"#utility.yul\":9675:9683   */\n      dup2\n        /* \"#utility.yul\":9660:9683   */\n      swap1\n      pop\n        /* \"#utility.yul\":9636:9685   */\n    tag_194:\n        /* \"#utility.yul\":9698:9778   */\n      tag_195\n        /* \"#utility.yul\":9754:9776   */\n      tag_196\n        /* \"#utility.yul\":9772:9775   */\n      dup6\n        /* \"#utility.yul\":9754:9776   */\n      tag_68\n      jump\t// in\n    tag_196:\n        /* \"#utility.yul\":9744:9752   */\n      dup4\n        /* \"#utility.yul\":9740:9777   */\n      add\n        /* \"#utility.yul\":9727:9738   */\n      dup3\n        /* \"#utility.yul\":9698:9778   */\n      tag_77\n      jump\t// in\n    tag_195:\n        /* \"#utility.yul\":9357:9788   */\n      pop\n      pop\n        /* \"#utility.yul\":9342:9788   */\n    tag_191:\n        /* \"#utility.yul\":9252:9795   */\n      pop\n      pop\n      pop\n      jump\t// out\n        /* \"#utility.yul\":9801:9918   */\n    tag_79:\n        /* \"#utility.yul\":9855:9863   */\n      0x00\n        /* \"#utility.yul\":9905:9910   */\n      dup3\n        /* \"#utility.yul\":9899:9903   */\n      dup3\n        /* \"#utility.yul\":9895:9911   */\n      shr\n        /* \"#utility.yul\":9874:9911   */\n      swap1\n      pop\n        /* \"#utility.yul\":9801:9918   */\n      swap3\n      swap2\n      pop\n      pop\n      jump\t// out\n        /* \"#utility.yul\":9924:10093   */\n    tag_80:\n        /* \"#utility.yul\":9968:9974   */\n      0x00\n        /* \"#utility.yul\":10001:10052   */\n      tag_199\n        /* \"#utility.yul\":10049:10050   */\n      0x00\n        /* \"#utility.yul\":10045:10051   */\n      not\n        /* \"#utility.yul\":10037:10042   */\n      dup5\n        /* \"#utility.yul\":10034:10035   */\n      0x08\n        /* \"#utility.yul\":10030:10043   */\n      mul\n        /* \"#utility.yul\":10001:10052   */\n      tag_79\n      jump\t// in\n    tag_199:\n        /* \"#utility.yul\":9997:10053   */\n      not\n        /* \"#utility.yul\":10082:10086   */\n      dup1\n        /* \"#utility.yul\":10076:10080   */\n      dup4\n        /* \"#utility.yul\":10072:10087   */\n      and\n        /* \"#utility.yul\":10062:10087   */\n      swap2\n      pop\n        /* \"#utility.yul\":9975:10093   */\n      pop\n        /* \"#utility.yul\":9924:10093   */\n      swap3\n      swap2\n      pop\n      pop\n      jump\t// out\n        /* \"#utility.yul\":10098:10393   */\n    tag_81:\n        /* \"#utility.yul\":10174:10178   */\n      0x00\n        /* \"#utility.yul\":10320:10349   */\n      tag_201\n        /* \"#utility.yul\":10345:10348   */\n      dup4\n        /* \"#utility.yul\":10339:10343   */\n      dup4\n        /* \"#utility.yul\":10320:10349   */\n      tag_80\n      jump\t// in\n    tag_201:\n        /* \"#utility.yul\":10312:10349   */\n      swap2\n      pop\n        /* \"#utility.yul\":10382:10385   */\n      dup3\n        /* \"#utility.yul\":10379:10380   */\n      0x02\n        /* \"#utility.yul\":10375:10386   */\n      mul\n        /* \"#utility.yul\":10369:10373   */\n      dup3\n        /* \"#utility.yul\":10366:10387   */\n      or\n        /* \"#utility.yul\":10358:10387   */\n      swap1\n      pop\n        /* \"#utility.yul\":10098:10393   */\n      swap3\n      swap2\n      pop\n      pop\n      jump\t// out\n        /* \"#utility.yul\":10398:11793   */\n    tag_34:\n        /* \"#utility.yul\":10515:10552   */\n      tag_203\n        /* \"#utility.yul\":10548:10551   */\n      dup3\n        /* \"#utility.yul\":10515:10552   */\n      tag_60\n      jump\t// in\n    tag_203:\n        /* \"#utility.yul\":10617:10635   */\n      0xffffffffffffffff\n        /* \"#utility.yul\":10609:10615   */\n      dup2\n        /* \"#utility.yul\":10606:10636   */\n      gt\n        /* \"#utility.yul\":10603:10659   */\n      iszero\n      tag_204\n      jumpi\n        /* \"#utility.yul\":10639:10657   */\n      tag_205\n      tag_49\n      jump\t// in\n    tag_205:\n        /* \"#utility.yul\":10603:10659   */\n    tag_204:\n        /* \"#utility.yul\":10683:10721   */\n      tag_206\n        /* \"#utility.yul\":10715:10719   */\n      dup3\n        /* \"#utility.yul\":10709:10720   */\n      sload\n        /* \"#utility.yul\":10683:10721   */\n      tag_38\n      jump\t// in\n    tag_206:\n        /* \"#utility.yul\":10768:10835   */\n      tag_207\n        /* \"#utility.yul\":10828:10834   */\n      dup3\n        /* \"#utility.yul\":10820:10826   */\n      dup3\n        /* \"#utility.yul\":10814:10818   */\n      dup6\n        /* \"#utility.yul\":10768:10835   */\n      tag_78\n      jump\t// in\n    tag_207:\n        /* \"#utility.yul\":10862:10863   */\n      0x00\n        /* \"#utility.yul\":10886:10890   */\n      0x20\n        /* \"#utility.yul\":10873:10890   */\n      swap1\n      pop\n        /* \"#utility.yul\":10918:10920   */\n      0x1f\n        /* \"#utility.yul\":10910:10916   */\n      dup4\n        /* \"#utility.yul\":10907:10921   */\n      gt\n        /* \"#utility.yul\":10935:10936   */\n      0x01\n        /* \"#utility.yul\":10930:11548   */\n      dup2\n      eq\n      tag_209\n      jumpi\n        /* \"#utility.yul\":11592:11593   */\n      0x00\n        /* \"#utility.yul\":11609:11615   */\n      dup5\n        /* \"#utility.yul\":11606:11683   */\n      iszero\n      tag_210\n      jumpi\n        /* \"#utility.yul\":11658:11667   */\n      dup3\n        /* \"#utility.yul\":11653:11656   */\n      dup8\n        /* \"#utility.yul\":11649:11668   */\n      add\n        /* \"#utility.yul\":11643:11669   */\n      mload\n        /* \"#utility.yul\":11634:11669   */\n      swap1\n      pop\n        /* \"#utility.yul\":11606:11683   */\n    tag_210:\n        /* \"#utility.yul\":11709:11776   */\n      tag_211\n        /* \"#utility.yul\":11769:11775   */\n      dup6\n        /* \"#utility.yul\":11762:11767   */\n      dup3\n        /* \"#utility.yul\":11709:11776   */\n      tag_81\n      jump\t// in\n    tag_211:\n        /* \"#utility.yul\":11703:11707   */\n      dup7\n        /* \"#utility.yul\":11696:11777   */\n      sstore\n        /* \"#utility.yul\":11565:11787   */\n      pop\n        /* \"#utility.yul\":10900:11787   */\n      jump(tag_208)\n        /* \"#utility.yul\":10930:11548   */\n    tag_209:\n        /* \"#utility.yul\":10982:10986   */\n      0x1f\n        /* \"#utility.yul\":10978:10987   */\n      not\n        /* \"#utility.yul\":10970:10976   */\n      dup5\n        /* \"#utility.yul\":10966:10988   */\n      and\n        /* \"#utility.yul\":11016:11053   */\n      tag_212\n        /* \"#utility.yul\":11048:11052   */\n      dup7\n        /* \"#utility.yul\":11016:11053   */\n      tag_67\n      jump\t// in\n    tag_212:\n        /* \"#utility.yul\":11075:11076   */\n      0x00\n        /* \"#utility.yul\":11089:11297   */\n    tag_213:\n        /* \"#utility.yul\":11103:11110   */\n      dup3\n        /* \"#utility.yul\":11100:11101   */\n      dup2\n        /* \"#utility.yul\":11097:11111   */\n      lt\n        /* \"#utility.yul\":11089:11297   */\n      iszero\n      tag_215\n      jumpi\n        /* \"#utility.yul\":11182:11191   */\n      dup5\n        /* \"#utility.yul\":11177:11180   */\n      dup10\n        /* \"#utility.yul\":11173:11192   */\n      add\n        /* \"#utility.yul\":11167:11193   */\n      mload\n        /* \"#utility.yul\":11159:11165   */\n      dup3\n        /* \"#utility.yul\":11152:11194   */\n      sstore\n        /* \"#utility.yul\":11233:11234   */\n      0x01\n        /* \"#utility.yul\":11225:11231   */\n      dup3\n        /* \"#utility.yul\":11221:11235   */\n      add\n        /* \"#utility.yul\":11211:11235   */\n      swap2\n      pop\n        /* \"#utility.yul\":11280:11282   */\n      0x20\n        /* \"#utility.yul\":11269:11278   */\n      dup6\n        /* \"#utility.yul\":11265:11283   */\n      add\n        /* \"#utility.yul\":11252:11283   */\n      swap5\n      pop\n        /* \"#utility.yul\":11126:11130   */\n      0x20\n        /* \"#utility.yul\":11123:11124   */\n      dup2\n        /* \"#utility.yul\":11119:11131   */\n      add\n        /* \"#utility.yul\":11114:11131   */\n      swap1\n      pop\n        /* \"#utility.yul\":11089:11297   */\n      jump(tag_213)\n    tag_215:\n        /* \"#utility.yul\":11325:11331   */\n      dup7\n        /* \"#utility.yul\":11316:11323   */\n      dup4\n        /* \"#utility.yul\":11313:11332   */\n      lt\n        /* \"#utility.yul\":11310:11489   */\n      iszero\n      tag_216\n      jumpi\n        /* \"#utility.yul\":11383:11392   */\n      dup5\n        /* \"#utility.yul\":11378:11381   */\n      dup10\n        /* \"#utility.yul\":11374:11393   */\n      add\n        /* \"#utility.yul\":11368:11394   */\n      mload\n        /* \"#utility.yul\":11426:11474   */\n      tag_217\n        /* \"#utility.yul\":11468:11472   */\n      0x1f\n        /* \"#utility.yul\":11460:11466   */\n      dup10\n        /* \"#utility.yul\":11456:11473   */\n      and\n        /* \"#utility.yul\":11445:11454   */\n      dup3\n        /* \"#utility.yul\":11426:11474   */\n      tag_80\n      jump\t// in\n    tag_217:\n        /* \"#utility.yul\":11418:11424   */\n      dup4\n        /* \"#utility.yul\":11411:11475   */\n      sstore\n        /* \"#utility.yul\":11333:11489   */\n      pop\n        /* \"#utility.yul\":11310:11489   */\n    tag_216:\n        /* \"#utility.yul\":11535:11536   */\n      0x01\n        /* \"#utility.yul\":11531:11532   */\n      0x02\n        /* \"#utility.yul\":11523:11529   */\n      dup9\n        /* \"#utility.yul\":11519:11533   */\n      mul\n        /* \"#utility.yul\":11515:11537   */\n      add\n        /* \"#utility.yul\":11509:11513   */\n      dup9\n        /* \"#utility.yul\":11502:11538   */\n      sstore\n        /* \"#utility.yul\":10937:11548   */\n      pop\n      pop\n      pop\n        /* \"#utility.yul\":10900:11787   */\n    tag_208:\n      pop\n        /* \"#utility.yul\":10490:11793   */\n      pop\n      pop\n      pop\n        /* \"#utility.yul\":10398:11793   */\n      pop\n      pop\n      jump\t// out\n\n    auxdata: 0xa264697066735822122070cdd59b9f3b01f1f4a0326a0772248a44d40277f5fe313d96c8d38aa629eb3664736f6c63430008130033\n}\n",
				"bytecode": {
					"linkReferences": {},
					"object": "608060405234801561001057600080fd5b5061093b806100206000396000f3fe608060405234801561001057600080fd5b506004361061004c5760003560e01c806364cc7327146100515780636f760f41146100815780638bab8dd51461009d5780639e7a13ad146100cd575b600080fd5b61006b600480360381019061006691906103f3565b6100fe565b6040516100789190610455565b60405180910390f35b61009b6004803603810190610096919061049c565b610126565b005b6100b760048036038101906100b291906103f3565b6101af565b6040516100c49190610455565b60405180910390f35b6100e760048036038101906100e291906104f8565b6101dd565b6040516100f59291906105a4565b60405180910390f35b60006001826040516101109190610610565b9081526020016040518091039020549050919050565b806001836040516101379190610610565b90815260200160405180910390208190555060006040518060400160405280848152602001838152509080600181540180825580915050600190039060005260206000209060020201600090919091909150600082015181600001908161019e9190610833565b506020820151816001015550505050565b6001818051602081018201805184825260208301602085012081835280955050505050506000915090505481565b600081815481106101ed57600080fd5b906000526020600020906002020160009150905080600001805461021090610656565b80601f016020809104026020016040519081016040528092919081815260200182805461023c90610656565b80156102895780601f1061025e57610100808354040283529160200191610289565b820191906000526020600020905b81548152906001019060200180831161026c57829003601f168201915b5050505050908060010154905082565b6000604051905090565b600080fd5b600080fd5b600080fd5b600080fd5b6000601f19601f8301169050919050565b7f4e487b7100000000000000000000000000000000000000000000000000000000600052604160045260246000fd5b610300826102b7565b810181811067ffffffffffffffff8211171561031f5761031e6102c8565b5b80604052505050565b6000610332610299565b905061033e82826102f7565b919050565b600067ffffffffffffffff82111561035e5761035d6102c8565b5b610367826102b7565b9050602081019050919050565b82818337600083830152505050565b600061039661039184610343565b610328565b9050828152602081018484840111156103b2576103b16102b2565b5b6103bd848285610374565b509392505050565b600082601f8301126103da576103d96102ad565b5b81356103ea848260208601610383565b91505092915050565b600060208284031215610409576104086102a3565b5b600082013567ffffffffffffffff811115610427576104266102a8565b5b610433848285016103c5565b91505092915050565b6000819050919050565b61044f8161043c565b82525050565b600060208201905061046a6000830184610446565b92915050565b6104798161043c565b811461048457600080fd5b50565b60008135905061049681610470565b92915050565b600080604083850312156104b3576104b26102a3565b5b600083013567ffffffffffffffff8111156104d1576104d06102a8565b5b6104dd858286016103c5565b92505060206104ee85828601610487565b9150509250929050565b60006020828403121561050e5761050d6102a3565b5b600061051c84828501610487565b91505092915050565b600081519050919050565b600082825260208201905092915050565b60005b8381101561055f578082015181840152602081019050610544565b60008484015250505050565b600061057682610525565b6105808185610530565b9350610590818560208601610541565b610599816102b7565b840191505092915050565b600060408201905081810360008301526105be818561056b565b90506105cd6020830184610446565b9392505050565b600081905092915050565b60006105ea82610525565b6105f481856105d4565b9350610604818560208601610541565b80840191505092915050565b600061061c82846105df565b915081905092915050565b7f4e487b7100000000000000000000000000000000000000000000000000000000600052602260045260246000fd5b6000600282049050600182168061066e57607f821691505b60208210810361068157610680610627565b5b50919050565b60008190508160005260206000209050919050565b60006020601f8301049050919050565b600082821b905092915050565b6000600883026106e97fffffffffffffffffffffffffffffffffffffffffffffffffffffffffffffffff826106ac565b6106f386836106ac565b95508019841693508086168417925050509392505050565b6000819050919050565b600061073061072b6107268461043c565b61070b565b61043c565b9050919050565b6000819050919050565b61074a83610715565b61075e61075682610737565b8484546106b9565b825550505050565b600090565b610773610766565b61077e818484610741565b505050565b5b818110156107a25761079760008261076b565b600181019050610784565b5050565b601f8211156107e7576107b881610687565b6107c18461069c565b810160208510156107d0578190505b6107e46107dc8561069c565b830182610783565b50505b505050565b600082821c905092915050565b600061080a600019846008026107ec565b1980831691505092915050565b600061082383836107f9565b9150826002028217905092915050565b61083c82610525565b67ffffffffffffffff811115610855576108546102c8565b5b61085f8254610656565b61086a8282856107a6565b600060209050601f83116001811461089d576000841561088b578287015190505b6108958582610817565b8655506108fd565b601f1984166108ab86610687565b60005b828110156108d3578489015182556001820191506020850194506020810190506108ae565b868310156108f057848901516108ec601f8916826107f9565b8355505b6001600288020188555050505b50505050505056fea264697066735822122070cdd59b9f3b01f1f4a0326a0772248a44d40277f5fe313d96c8d38aa629eb3664736f6c63430008130033",
					"opcodes": "PUSH1 0x80 PUSH1 0x40 MSTORE CALLVALUE DUP1 ISZERO PUSH2 0x10 JUMPI PUSH1 0x0 DUP1 REVERT JUMPDEST POP PUSH2 0x93B DUP1 PUSH2 0x20 PUSH1 0x0 CODECOPY PUSH1 0x0 RETURN INVALID PUSH1 0x80 PUSH1 0x40 MSTORE CALLVALUE DUP1 ISZERO PUSH2 0x10 JUMPI PUSH1 0x0 DUP1 REVERT JUMPDEST POP PUSH1 0x4 CALLDATASIZE LT PUSH2 0x4C JUMPI PUSH1 0x0 CALLDATALOAD PUSH1 0xE0 SHR DUP1 PUSH4 0x64CC7327 EQ PUSH2 0x51 JUMPI DUP1 PUSH4 0x6F760F41 EQ PUSH2 0x81 JUMPI DUP1 PUSH4 0x8BAB8DD5 EQ PUSH2 0x9D JUMPI DUP1 PUSH4 0x9E7A13AD EQ PUSH2 0xCD JUMPI JUMPDEST PUSH1 0x0 DUP1 REVERT JUMPDEST PUSH2 0x6B PUSH1 0x4 DUP1 CALLDATASIZE SUB DUP2 ADD SWAP1 PUSH2 0x66 SWAP2 SWAP1 PUSH2 0x3F3 JUMP JUMPDEST PUSH2 0xFE JUMP JUMPDEST PUSH1 0x40 MLOAD PUSH2 0x78 SWAP2 SWAP1 PUSH2 0x455 JUMP JUMPDEST PUSH1 0x40 MLOAD DUP1 SWAP2 SUB SWAP1 RETURN JUMPDEST PUSH2 0x9B PUSH1 0x4 DUP1 CALLDATASIZE SUB DUP2 ADD SWAP1 PUSH2 0x96 SWAP2 SWAP1 PUSH2 0x49C JUMP JUMPDEST PUSH2 0x126 JUMP JUMPDEST STOP JUMPDEST PUSH2 0xB7 PUSH1 0x4 DUP1 CALLDATASIZE SUB DUP2 ADD SWAP1 PUSH2 0xB2 SWAP2 SWAP1 PUSH2 0x3F3 JUMP JUMPDEST PUSH2 0x1AF JUMP JUMPDEST PUSH1 0x40 MLOAD PUSH2 0xC4 SWAP2 SWAP1 PUSH2 0x455 JUMP JUMPDEST PUSH1 0x40 MLOAD DUP1 SWAP2 SUB SWAP1 RETURN JUMPDEST PUSH2 0xE7 PUSH1 0x4 DUP1 CALLDATASIZE SUB DUP2 ADD SWAP1 PUSH2 0xE2 SWAP2 SWAP1 PUSH2 0x4F8 JUMP JUMPDEST PUSH2 0x1DD JUMP JUMPDEST PUSH1 0x40 MLOAD PUSH2 0xF5 SWAP3 SWAP2 SWAP1 PUSH2 0x5A4 JUMP JUMPDEST PUSH1 0x40 MLOAD DUP1 SWAP2 SUB SWAP1 RETURN JUMPDEST PUSH1 0x0 PUSH1 0x1 DUP3 PUSH1 0x40 MLOAD PUSH2 0x110 SWAP2 SWAP1 PUSH2 0x610 JUMP JUMPDEST SWAP1 DUP2 MSTORE PUSH1 0x20 ADD PUSH1 0x40 MLOAD DUP1 SWAP2 SUB SWAP1 KECCAK256 SLOAD SWAP1 POP SWAP2 SWAP1 POP JUMP JUMPDEST DUP1 PUSH1 0x1 DUP4 PUSH1 0x40 MLOAD PUSH2 0x137 SWAP2 SWAP1 PUSH2 0x610 JUMP JUMPDEST SWAP1 DUP2 MSTORE PUSH1 0x20 ADD PUSH1 0x40 MLOAD DUP1 SWAP2 SUB SWAP1 KECCAK256 DUP2 SWAP1 SSTORE POP PUSH1 0x0 PUSH1 0x40 MLOAD DUP1 PUSH1 0x40 ADD PUSH1 0x40 MSTORE DUP1 DUP5 DUP2 MSTORE PUSH1 0x20 ADD DUP4 DUP2 MSTORE POP SWAP1 DUP1 PUSH1 0x1 DUP2 SLOAD ADD DUP1 DUP3 SSTORE DUP1 SWAP2 POP POP PUSH1 0x1 SWAP1 SUB SWAP1 PUSH1 0x0 MSTORE PUSH1 0x20 PUSH1 0x0 KECCAK256 SWAP1 PUSH1 0x2 MUL ADD PUSH1 0x0 SWAP1 SWAP2 SWAP1 SWAP2 SWAP1 SWAP2 POP PUSH1 0x0 DUP3 ADD MLOAD DUP2 PUSH1 0x0 ADD SWAP1 DUP2 PUSH2 0x19E SWAP2 SWAP1 PUSH2 0x833 JUMP JUMPDEST POP PUSH1 0x20 DUP3 ADD MLOAD DUP2 PUSH1 0x1 ADD SSTORE POP POP POP POP JUMP JUMPDEST PUSH1 0x1 DUP2 DUP1 MLOAD PUSH1 0x20 DUP2 ADD DUP3 ADD DUP1 MLOAD DUP5 DUP3 MSTORE PUSH1 0x20 DUP4 ADD PUSH1 0x20 DUP6 ADD KECCAK256 DUP2 DUP4 MSTORE DUP1 SWAP6 POP POP POP POP POP POP PUSH1 0x0 SWAP2 POP SWAP1 POP SLOAD DUP2 JUMP JUMPDEST PUSH1 0x0 DUP2 DUP2 SLOAD DUP2 LT PUSH2 0x1ED JUMPI PUSH1 0x0 DUP1 REVERT JUMPDEST SWAP1 PUSH1 0x0 MSTORE PUSH1 0x20 PUSH1 0x0 KECCAK256 SWAP1 PUSH1 0x2 MUL ADD PUSH1 0x0 SWAP2 POP SWAP1 POP DUP1 PUSH1 0x0 ADD DUP1 SLOAD PUSH2 0x210 SWAP1 PUSH2 0x656 JUMP JUMPDEST DUP1 PUSH1 0x1F ADD PUSH1 0x20 DUP1 SWAP2 DIV MUL PUSH1 0x20 ADD PUSH1 0x40 MLOAD SWAP1 DUP2 ADD PUSH1 0x40 MSTORE DUP1 SWAP3 SWAP2 SWAP1 DUP2 DUP2 MSTORE PUSH1 0x20 ADD DUP3 DUP1 SLOAD PUSH2 0x23C SWAP1 PUSH2 0x656 JUMP JUMPDEST DUP1 ISZERO PUSH2 0x289 JUMPI DUP1 PUSH1 0x1F LT PUSH2 0x25E JUMPI PUSH2 0x100 DUP1 DUP4 SLOAD DIV MUL DUP4 MSTORE SWAP2 PUSH1 0x20 ADD SWAP2 PUSH2 0x289 JUMP JUMPDEST DUP3 ADD SWAP2 SWAP1 PUSH1 0x0 MSTORE PUSH1 0x20 PUSH1 0x0 KECCAK256 SWAP1 JUMPDEST DUP2 SLOAD DUP2 MSTORE SWAP1 PUSH1 0x1 ADD SWAP1 PUSH1 0x20 ADD DUP1 DUP4 GT PUSH2 0x26C JUMPI DUP3 SWAP1 SUB PUSH1 0x1F AND DUP3 ADD SWAP2 JUMPDEST POP POP POP POP POP SWAP1 DUP1 PUSH1 0x1 ADD SLOAD SWAP1 POP DUP3 JUMP JUMPDEST PUSH1 0x0 PUSH1 0x40 MLOAD SWAP1 POP SWAP1 JUMP JUMPDEST PUSH1 0x0 DUP1 REVERT JUMPDEST PUSH1 0x0 DUP1 REVERT JUMPDEST PUSH1 0x0 DUP1 REVERT JUMPDEST PUSH1 0x0 DUP1 REVERT JUMPDEST PUSH1 0x0 PUSH1 0x1F NOT PUSH1 0x1F DUP4 ADD AND SWAP1 POP SWAP2 SWAP1 POP JUMP JUMPDEST PUSH32 0x4E487B7100000000000000000000000000000000000000000000000000000000 PUSH1 0x0 MSTORE PUSH1 0x41 PUSH1 0x4 MSTORE PUSH1 0x24 PUSH1 0x0 REVERT JUMPDEST PUSH2 0x300 DUP3 PUSH2 0x2B7 JUMP JUMPDEST DUP2 ADD DUP2 DUP2 LT PUSH8 0xFFFFFFFFFFFFFFFF DUP3 GT OR ISZERO PUSH2 0x31F JUMPI PUSH2 0x31E PUSH2 0x2C8 JUMP JUMPDEST JUMPDEST DUP1 PUSH1 0x40 MSTORE POP POP POP JUMP JUMPDEST PUSH1 0x0 PUSH2 0x332 PUSH2 0x299 JUMP JUMPDEST SWAP1 POP PUSH2 0x33E DUP3 DUP3 PUSH2 0x2F7 JUMP JUMPDEST SWAP2 SWAP1 POP JUMP JUMPDEST PUSH1 0x0 PUSH8 0xFFFFFFFFFFFFFFFF DUP3 GT ISZERO PUSH2 0x35E JUMPI PUSH2 0x35D PUSH2 0x2C8 JUMP JUMPDEST JUMPDEST PUSH2 0x367 DUP3 PUSH2 0x2B7 JUMP JUMPDEST SWAP1 POP PUSH1 0x20 DUP2 ADD SWAP1 POP SWAP2 SWAP1 POP JUMP JUMPDEST DUP3 DUP2 DUP4 CALLDATACOPY PUSH1 0x0 DUP4 DUP4 ADD MSTORE POP POP POP JUMP JUMPDEST PUSH1 0x0 PUSH2 0x396 PUSH2 0x391 DUP5 PUSH2 0x343 JUMP JUMPDEST PUSH2 0x328 JUMP JUMPDEST SWAP1 POP DUP3 DUP2 MSTORE PUSH1 0x20 DUP2 ADD DUP5 DUP5 DUP5 ADD GT ISZERO PUSH2 0x3B2 JUMPI PUSH2 0x3B1 PUSH2 0x2B2 JUMP JUMPDEST JUMPDEST PUSH2 0x3BD DUP5 DUP3 DUP6 PUSH2 0x374 JUMP JUMPDEST POP SWAP4 SWAP3 POP POP POP JUMP JUMPDEST PUSH1 0x0 DUP3 PUSH1 0x1F DUP4 ADD SLT PUSH2 0x3DA JUMPI PUSH2 0x3D9 PUSH2 0x2AD JUMP JUMPDEST JUMPDEST DUP2 CALLDATALOAD PUSH2 0x3EA DUP5 DUP3 PUSH1 0x20 DUP7 ADD PUSH2 0x383 JUMP JUMPDEST SWAP2 POP POP SWAP3 SWAP2 POP POP JUMP JUMPDEST PUSH1 0x0 PUSH1 0x20 DUP3 DUP5 SUB SLT ISZERO PUSH2 0x409 JUMPI PUSH2 0x408 PUSH2 0x2A3 JUMP JUMPDEST JUMPDEST PUSH1 0x0 DUP3 ADD CALLDATALOAD PUSH8 0xFFFFFFFFFFFFFFFF DUP2 GT ISZERO PUSH2 0x427 JUMPI PUSH2 0x426 PUSH2 0x2A8 JUMP JUMPDEST JUMPDEST PUSH2 0x433 DUP5 DUP3 DUP6 ADD PUSH2 0x3C5 JUMP JUMPDEST SWAP2 POP POP SWAP3 SWAP2 POP POP JUMP JUMPDEST PUSH1 0x0 DUP2 SWAP1 POP SWAP2 SWAP1 POP JUMP JUMPDEST PUSH2 0x44F DUP2 PUSH2 0x43C JUMP JUMPDEST DUP3 MSTORE POP POP JUMP JUMPDEST PUSH1 0x0 PUSH1 0x20 DUP3 ADD SWAP1 POP PUSH2 0x46A PUSH1 0x0 DUP4 ADD DUP5 PUSH2 0x446 JUMP JUMPDEST SWAP3 SWAP2 POP POP JUMP JUMPDEST PUSH2 0x479 DUP2 PUSH2 0x43C JUMP JUMPDEST DUP2 EQ PUSH2 0x484 JUMPI PUSH1 0x0 DUP1 REVERT JUMPDEST POP JUMP JUMPDEST PUSH1 0x0 DUP2 CALLDATALOAD SWAP1 POP PUSH2 0x496 DUP2 PUSH2 0x470 JUMP JUMPDEST SWAP3 SWAP2 POP POP JUMP JUMPDEST PUSH1 0x0 DUP1 PUSH1 0x40 DUP4 DUP6 SUB SLT ISZERO PUSH2 0x4B3 JUMPI PUSH2 0x4B2 PUSH2 0x2A3 JUMP JUMPDEST JUMPDEST PUSH1 0x0 DUP4 ADD CALLDATALOAD PUSH8 0xFFFFFFFFFFFFFFFF DUP2 GT ISZERO PUSH2 0x4D1 JUMPI PUSH2 0x4D0 PUSH2 0x2A8 JUMP JUMPDEST JUMPDEST PUSH2 0x4DD DUP6 DUP3 DUP7 ADD PUSH2 0x3C5 JUMP JUMPDEST SWAP3 POP POP PUSH1 0x20 PUSH2 0x4EE DUP6 DUP3 DUP7 ADD PUSH2 0x487 JUMP JUMPDEST SWAP2 POP POP SWAP3 POP SWAP3 SWAP1 POP JUMP JUMPDEST PUSH1 0x0 PUSH1 0x20 DUP3 DUP5 SUB SLT ISZERO PUSH2 0x50E JUMPI PUSH2 0x50D PUSH2 0x2A3 JUMP JUMPDEST JUMPDEST PUSH1 0x0 PUSH2 0x51C DUP5 DUP3 DUP6 ADD PUSH2 0x487 JUMP JUMPDEST SWAP2 POP POP SWAP3 SWAP2 POP POP JUMP JUMPDEST PUSH1 0x0 DUP2 MLOAD SWAP1 POP SWAP2 SWAP1 POP JUMP JUMPDEST PUSH1 0x0 DUP3 DUP3 MSTORE PUSH1 0x20 DUP3 ADD SWAP1 POP SWAP3 SWAP2 POP POP JUMP JUMPDEST PUSH1 0x0 JUMPDEST DUP4 DUP2 LT ISZERO PUSH2 0x55F JUMPI DUP1 DUP3 ADD MLOAD DUP2 DUP5 ADD MSTORE PUSH1 0x20 DUP2 ADD SWAP1 POP PUSH2 0x544 JUMP JUMPDEST PUSH1 0x0 DUP5 DUP5 ADD MSTORE POP POP POP POP JUMP JUMPDEST PUSH1 0x0 PUSH2 0x576 DUP3 PUSH2 0x525 JUMP JUMPDEST PUSH2 0x580 DUP2 DUP6 PUSH2 0x530 JUMP JUMPDEST SWAP4 POP PUSH2 0x590 DUP2 DUP6 PUSH1 0x20 DUP7 ADD PUSH2 0x541 JUMP JUMPDEST PUSH2 0x599 DUP2 PUSH2 0x2B7 JUMP JUMPDEST DUP5 ADD SWAP2 POP POP SWAP3 SWAP2 POP POP JUMP JUMPDEST PUSH1 0x0 PUSH1 0x40 DUP3 ADD SWAP1 POP DUP2 DUP2 SUB PUSH1 0x0 DUP4 ADD MSTORE PUSH2 0x5BE DUP2 DUP6 PUSH2 0x56B JUMP JUMPDEST SWAP1 POP PUSH2 0x5CD PUSH1 0x20 DUP4 ADD DUP5 PUSH2 0x446 JUMP JUMPDEST SWAP4 SWAP3 POP POP POP JUMP JUMPDEST PUSH1 0x0 DUP2 SWAP1 POP SWAP3 SWAP2 POP POP JUMP JUMPDEST PUSH1 0x0 PUSH2 0x5EA DUP3 PUSH2 0x525 JUMP JUMPDEST PUSH2 0x5F4 DUP2 DUP6 PUSH2 0x5D4 JUMP JUMPDEST SWAP4 POP PUSH2 0x604 DUP2 DUP6 PUSH1 0x20 DUP7 ADD PUSH2 0x541 JUMP JUMPDEST DUP1 DUP5 ADD SWAP2 POP POP SWAP3 SWAP2 POP POP JUMP JUMPDEST PUSH1 0x0 PUSH2 0x61C DUP3 DUP5 PUSH2 0x5DF JUMP JUMPDEST SWAP2 POP DUP2 SWAP1 POP SWAP3 SWAP2 POP POP JUMP JUMPDEST PUSH32 0x4E487B7100000000000000000000000000000000000000000000000000000000 PUSH1 0x0 MSTORE PUSH1 0x22 PUSH1 0x4 MSTORE PUSH1 0x24 PUSH1 0x0 REVERT JUMPDEST PUSH1 0x0 PUSH1 0x2 DUP3 DIV SWAP1 POP PUSH1 0x1 DUP3 AND DUP1 PUSH2 0x66E JUMPI PUSH1 0x7F DUP3 AND SWAP2 POP JUMPDEST PUSH1 0x20 DUP3 LT DUP2 SUB PUSH2 0x681 JUMPI PUSH2 0x680 PUSH2 0x627 JUMP JUMPDEST JUMPDEST POP SWAP2 SWAP1 POP JUMP JUMPDEST PUSH1 0x0 DUP2 SWAP1 POP DUP2 PUSH1 0x0 MSTORE PUSH1 0x20 PUSH1 0x0 KECCAK256 SWAP1 POP SWAP2 SWAP1 POP JUMP JUMPDEST PUSH1 0x0 PUSH1 0x20 PUSH1 0x1F DUP4 ADD DIV SWAP1 POP SWAP2 SWAP1 POP JUMP JUMPDEST PUSH1 0x0 DUP3 DUP3 SHL SWAP1 POP SWAP3 SWAP2 POP POP JUMP JUMPDEST PUSH1 0x0 PUSH1 0x8 DUP4 MUL PUSH2 0x6E9 PUSH32 0xFFFFFFFFFFFFFFFFFFFFFFFFFFFFFFFFFFFFFFFFFFFFFFFFFFFFFFFFFFFFFFFF DUP3 PUSH2 0x6AC JUMP JUMPDEST PUSH2 0x6F3 DUP7 DUP4 PUSH2 0x6AC JUMP JUMPDEST SWAP6 POP DUP1 NOT DUP5 AND SWAP4 POP DUP1 DUP7 AND DUP5 OR SWAP3 POP POP POP SWAP4 SWAP3 POP POP POP JUMP JUMPDEST PUSH1 0x0 DUP2 SWAP1 POP SWAP2 SWAP1 POP JUMP JUMPDEST PUSH1 0x0 PUSH2 0x730 PUSH2 0x72B PUSH2 0x726 DUP5 PUSH2 0x43C JUMP JUMPDEST PUSH2 0x70B JUMP JUMPDEST PUSH2 0x43C JUMP JUMPDEST SWAP1 POP SWAP2 SWAP1 POP JUMP JUMPDEST PUSH1 0x0 DUP2 SWAP1 POP SWAP2 SWAP1 POP JUMP JUMPDEST PUSH2 0x74A DUP4 PUSH2 0x715 JUMP JUMPDEST PUSH2 0x75E PUSH2 0x756 DUP3 PUSH2 0x737 JUMP JUMPDEST DUP5 DUP5 SLOAD PUSH2 0x6B9 JUMP JUMPDEST DUP3 SSTORE POP POP POP POP JUMP JUMPDEST PUSH1 0x0 SWAP1 JUMP JUMPDEST PUSH2 0x773 PUSH2 0x766 JUMP JUMPDEST PUSH2 0x77E DUP2 DUP5 DUP5 PUSH2 0x741 JUMP JUMPDEST POP POP POP JUMP JUMPDEST JUMPDEST DUP2 DUP2 LT ISZERO PUSH2 0x7A2 JUMPI PUSH2 0x797 PUSH1 0x0 DUP3 PUSH2 0x76B JUMP JUMPDEST PUSH1 0x1 DUP2 ADD SWAP1 POP PUSH2 0x784 JUMP JUMPDEST POP POP JUMP JUMPDEST PUSH1 0x1F DUP3 GT ISZERO PUSH2 0x7E7 JUMPI PUSH2 0x7B8 DUP2 PUSH2 0x687 JUMP JUMPDEST PUSH2 0x7C1 DUP5 PUSH2 0x69C JUMP JUMPDEST DUP2 ADD PUSH1 0x20 DUP6 LT ISZERO PUSH2 0x7D0 JUMPI DUP2 SWAP1 POP JUMPDEST PUSH2 0x7E4 PUSH2 0x7DC DUP6 PUSH2 0x69C JUMP JUMPDEST DUP4 ADD DUP3 PUSH2 0x783 JUMP JUMPDEST POP POP JUMPDEST POP POP POP JUMP JUMPDEST PUSH1 0x0 DUP3 DUP3 SHR SWAP1 POP SWAP3 SWAP2 POP POP JUMP JUMPDEST PUSH1 0x0 PUSH2 0x80A PUSH1 0x0 NOT DUP5 PUSH1 0x8 MUL PUSH2 0x7EC JUMP JUMPDEST NOT DUP1 DUP4 AND SWAP2 POP POP SWAP3 SWAP2 POP POP JUMP JUMPDEST PUSH1 0x0 PUSH2 0x823 DUP4 DUP4 PUSH2 0x7F9 JUMP JUMPDEST SWAP2 POP DUP3 PUSH1 0x2 MUL DUP3 OR SWAP1 POP SWAP3 SWAP2 POP POP JUMP JUMPDEST PUSH2 0x83C DUP3 PUSH2 0x525 JUMP JUMPDEST PUSH8 0xFFFFFFFFFFFFFFFF DUP2 GT ISZERO PUSH2 0x855 JUMPI PUSH2 0x854 PUSH2 0x2C8 JUMP JUMPDEST JUMPDEST PUSH2 0x85F DUP3 SLOAD PUSH2 0x656 JUMP JUMPDEST PUSH2 0x86A DUP3 DUP3 DUP6 PUSH2 0x7A6 JUMP JUMPDEST PUSH1 0x0 PUSH1 0x20 SWAP1 POP PUSH1 0x1F DUP4 GT PUSH1 0x1 DUP2 EQ PUSH2 0x89D JUMPI PUSH1 0x0 DUP5 ISZERO PUSH2 0x88B JUMPI DUP3 DUP8 ADD MLOAD SWAP1 POP JUMPDEST PUSH2 0x895 DUP6 DUP3 PUSH2 0x817 JUMP JUMPDEST DUP7 SSTORE POP PUSH2 0x8FD JUMP JUMPDEST PUSH1 0x1F NOT DUP5 AND PUSH2 0x8AB DUP7 PUSH2 0x687 JUMP JUMPDEST PUSH1 0x0 JUMPDEST DUP3 DUP2 LT ISZERO PUSH2 0x8D3 JUMPI DUP5 DUP10 ADD MLOAD DUP3 SSTORE PUSH1 0x1 DUP3 ADD SWAP2 POP PUSH1 0x20 DUP6 ADD SWAP5 POP PUSH1 0x20 DUP2 ADD SWAP1 POP PUSH2 0x8AE JUMP JUMPDEST DUP7 DUP4 LT ISZERO PUSH2 0x8F0 JUMPI DUP5 DUP10 ADD MLOAD PUSH2 0x8EC PUSH1 0x1F DUP10 AND DUP3 PUSH2 0x7F9 JUMP JUMPDEST DUP4 SSTORE POP JUMPDEST PUSH1 0x1 PUSH1 0x2 DUP9 MUL ADD DUP9 SSTORE POP POP POP JUMPDEST POP POP POP POP POP POP JUMP INVALID LOG2 PUSH5 0x6970667358 0x22 SLT KECCAK256 PUSH17 0xCDD59B9F3B01F1F4A0326A0772248A44D4 MUL PUSH24 0xF5FE313D96C8D38AA629EB3664736F6C6343000813003300 "
				},
				"gasEstimates": {
					"creation": {
						"codeDepositCost": "472600",
						"executionCost": "505",
						"totalCost": "473105"
					},
					"external": {
						"addPerson(string,uint256)": "infinite",
						"nameToFavoriteNumber(string)": "infinite",
						"people(uint256)": "infinite",
						"retrieve(string)": "infinite"
					}
				},
				"methodIdentifiers": {
					"addPerson(string,uint256)": "6f760f41",
					"nameToFavoriteNumber(string)": "8bab8dd5",
					"people(uint256)": "9e7a13ad",
					"retrieve(string)": "64cc7327"
				}
			},
			"storageLayout": {
				"storage": [
					{
						"astId": 10,
						"contract": "SimpleStorage.sol:SimpleStorage",
						"label": "people",
						"offset": 0,
						"slot": "0",
						"type": "t_array(t_struct(Person)6_storage)dyn_storage"
					},
					{
						"astId": 14,
						"contract": "SimpleStorage.sol:SimpleStorage",
						"label": "nameToFavoriteNumber",
						"offset": 0,
						"slot": "1",
						"type": "t_mapping(t_string_memory_ptr,t_uint256)"
					}
				],
				"types": {
					"t_array(t_struct(Person)6_storage)dyn_storage": {
						"base": "t_struct(Person)6_storage",
						"encoding": "dynamic_array",
						"label": "struct SimpleStorage.Person[]",
						"numberOfBytes": "32"
					},
					"t_mapping(t_string_memory_ptr,t_uint256)": {
						"encoding": "mapping",
						"key": "t_string_memory_ptr",
						"label": "mapping(string => uint256)",
						"numberOfBytes": "32",
						"value": "t_uint256"
					},
					"t_string_memory_ptr": {
						"encoding": "bytes",
						"label": "string",
						"numberOfBytes": "32"
					},
					"t_string_storage": {
						"encoding": "bytes",
						"label": "string",
						"numberOfBytes": "32"
					},
					"t_struct(Person)6_storage": {
						"encoding": "inplace",
						"label": "struct SimpleStorage.Person",
						"members": [
							{
								"astId": 3,
								"contract": "SimpleStorage.sol:SimpleStorage",
								"label": "name",
								"offset": 0,
								"slot": "0",
								"type": "t_string_storage"
							},
							{
								"astId": 5,
								"contract": "SimpleStorage.sol:SimpleStorage",
								"label": "favoriteNumber",
								"offset": 0,
								"slot": "1",
								"type": "t_uint256"
							}
						],
						"numberOfBytes": "64"
					},
					"t_uint256": {
						"encoding": "inplace",
						"label": "uint256",
						"numberOfBytes": "32"
					}
				}
			},
			"userdoc": {
				"kind": "user",
				"methods": {},
				"version": 1
			}
		}
	}
}